:0200000480007A
:1000000017110000130181F417150000130545AD09
:10001000971500009385C5AC17160000130606B3AC
:1000200063FCC5008322050023A05500130545008D
:1000300093854500E3E8C5FE17150000130505B1DB
:1000400097150000938585B06378B50023200500DF
:1000500013054500E36CB5FEEF00D01DEF00C00DA9
:10006000970000009380400113050000B7055F90E2
:0C007000730020306F000000678000006B
:10007C00130101FE232C8100232A91002328210146
:10008C0023263101232E1100130905001304C0018E
:10009C00930990009304C0FFB357894093F7F7007E
:1000AC0013F7F70F1305070363D4F9001305770350
:1000BC001304C4FFEF00407FE31094FE8320C101C2
:1000CC000324810183244101032901018329C100F7
:1000DC001301010267800000130101FF232481003A
:1000EC00232611001304050003450400631A0500C0
:1000FC008320C100032481001301010167800000EB
:10010C00EF00807A130414006FF01FFE9307F001C8
:10011C001307F0FF97020000938242017390523054
:10012C007310073B7390073A67800000130101FFBF
:10013C0023261100EFF09FFDEF00C07E37150080E5
:10014C001305C5ADEFF05FF9B717008093874793A0
:10015C0073905730B7170080938787EC73900734F0
:10016C00B71700009387078873900730735040309F
:10017C00B707009073901734B7B700009387071038
:10018C0073902730930720227390373073503014BC
:10019C008320C10037150080130545AF1301010101
:1001AC006FF09FF3B7170080938787EC131525002A
:1001BC003305F5000325050067800000B7170080A4
:1001CC0013152500938787EC3305F5002320B50024
:1001DC0067800000130101FF23261100EF008069E6
:1001EC00F327303473903714F327103473901714AB
:1001FC00F327203473902714F3275010739017347F
:10020C008320C1001301010167800000B717008033
:10021C009387479373905730F32730347390371488
:10022C00F32720347390271473101514F3275010F0
:10023C007390173493D73500139745001377070243
:10024C0093F70710B3E7E70037E7FFFF1307D76D06
:10025C00B3F5E500B3E7B700B71500009385058843
:10026C00B3E7B700739007306780000037070200D0
:10027C0073200730170700001307870173105730DE
:10028C009306100083270500930600003707020031
:10029C00733007301385060023A0F500678000003B
:1002AC003707020073200730170700001307C70336
:1002BC007310573093061000834705000347150051
:1002CC0013178700B3E7E70003472500131707014F
:1002DC00B3E7E7000347350013178701B3E7E700DF
:1002EC0093060000370702007330073013850600B1
:1002FC0023A0F50067800000370702007320073049
:10030C0017070000130747027310573093061000AD
:10031C00830715009397870003470500B3E7E700B1
:10032C009306000037070200733007301385060070
:10033C0023A0F50067800000370702007320073008
:10034C00170700001307870173105730930710002D
:10035C002320B500930700003707020073300730E5
:10036C0013850700678000003707020073200730F1
:10037C00170700001307070373105730930710007B
:10038C002300B50093D58500A300B50093D5850057
:10039C002301B50093D58500A301B5009307000098
:1003AC0037070200733007301385070067800000A1
:1003BC0037070200732007301707000013070702E6
:1003CC0073105730930710002300B50093D58500A8
:1003DC00A300B50093070000370702007330073005
:1003EC001385070067800000130101FE232E110006
:1003FC00232C8100937725006382070613040500E4
:10040C00930581001305E5FFEFF05FE68357A1002C
:10041C00130730002324F10093F737006392E702AF
:10042C009305C10013052400EFF05FE48327C1009E
:10043C001397070183278100B3E7E7002324F1001A
:10044C00832781002326F1008320C101032481012D
:10045C000325C10013010102678000009305C10050
:10046C00EFF0DFE06FF05FFE130101FD23261102B8
:10047C00232481022322910223202103232E3101E4
:10048C00232C4101232A5101732420346352040488
:10049C001374F40F930770006312F41E9307000299
:1004AC0073A047149307000873B047308320C10230
:1004BC000324810283244102032901028329C101FF
:1004CC00032A8101832A4101130101036780000083
:1004DC00930740006302F40863E887029307200047
:1004EC00630CF41637150080130585B1EFF0DFBEF1
:1004FC0013050400EFF0DFB737150080130545B185
:10050C00EFF09FBD6F008017930760006300F40E3F
:10051C0093079000E318F4FC37140080130484F460
:10052C00832744FC13071000032584FA6388E73003
:10053C00130720006380E732639407328325C4FAE3
:10054C00EF00C03C9307000873A0473093070002EC
:10055C0073B047146F00002F7324103473290030CC
:10056C0013050400EFF05FE89304050073253034A5
:10057C0093D7C40093F77700130720006388E70430
:10058C0013075000638AE704130710006398E70011
:10059C009305C100EFF05FD69309050093050900A0
:1005AC00639809088325C10013D574001375F501F0
:1005BC00EFF0DFC01304440073101434B71700803D
:1005CC0093874793739057306FF05FEE9305C1009C
:1005DC00EFF01FCD6FF05FFC9305C100EFF0DFD1A2
:1005EC009319050193D909016FF05FFB7324103443
:1005FC00F329003013050400EFF01FDF73293034AA
:10060C009354C500135545011375F501EFF09FB9CF
:10061C0093F4740093071000930505006380F402B3
:10062C00930720006384F402E3060AF8938509001B
:10063C0013050400EFF09FBD6FF05FE71305090091
:10064C00EFF01FD7130A05006FF01FFE130509000A
:10065C00EFF09FD16FF01FFFF3291034732A003095
:10066C00F32430349306F00213F7F40793D7C40045
:10067C00630AD700930630076306D712EFF09FB5D5
:10068C006FF0DFE293F77700E39A87FE13D5F4005F
:10069C001375F501EFF01FB1930A050013D5440152
:1006AC001375F501EFF01FB0130405009305C1009D
:1006BC0013850A0013D9B401EFF05FBB6308050082
:1006CC0093050A00138509006FF0DFF69307C0004D
:1006DC006308F90A63E62703930710006306F9061B
:1006EC0063000906930740006306F908930780002E
:1006FC00E316F9F88327C1003364F4006F00C004DB
:10070C00930740016304F90863EE27019307000186
:10071C00E316F9F68327C10063D887021384070018
:10072C006F008002930780016308F9069307C001EC
:10073C00E316F9F48327C1006378F4006FF01FFE11
:10074C008327C1003304F4009305040013850A00C9
:10075C00EFF09FBEE31605F68325C10013D5740098
:10076C001375F501EFF09FA5938949007390193427
:10077C006FF0DFE48327C1003344F4006FF0DFFC3B
:10078C008327C1003374F4006FF01FFC8327C10072
:10079C00E35CF4FA6FF09FF88327C100E3F687FA65
:1007AC006FF0DFF793F73700638887041307300087
:1007BC006384E70413071000130410006384E7003C
:1007CC00EFF05FA13717000093D74401930607C0E1
:1007DC0063E0D702130727C06378F70237F7FFFFF0
:1007EC0013070738B387E700130720006374F70477
:1007FC00EFF05F9E6F00C00113D4F4001374F4018A
:10080C00333480006FF01FFCEF00C00E130905009D
:10081C0063040400EFF01F9C93D47400930509004B
:10082C0013F5F401EFF09F999389490073901934F3
:10083C006FF0DFC7EF00C00C6FF05FFD1375F50FA5
:10084C00EF008006F327103493874700739017341A
:10085C006FF0DFC5EF0000072324A4FA6FF09FFEB2
:10086C0037150080130585B0EFF01F87EF0080006F
:10087C006FF0DFC3B71700809387C7B2370601103C
:10088C0083C60700639406006F000000938717006F
:10089C0003274600135707011377F70FE30A07FEE8
:1008AC002320D6006FF0DFFD3707011083274700A8
:1008BC0093D7070193F7F70FE38A07FE2320A700CE
:1008CC0067800000B707011083A747001305F0FFEE
:1008DC0093D78701638E07003707011083274700E2
:1008EC0093D78701E38C07FE032507001375F50FDB
:1008FC0067800000B787001003A507006780000021
:10090C00B787001003A5470067800000B787001069
:10091C001307F0FF23A6E70023A4A70023A6B70024
:10092C0067800000678000007311013423221100DE
:10093C002326310023284100232A5100232C610057
:10094C00232E710023208102232291022324A10251
:10095C002326B1022328C102232AD102232CE1022F
:10096C00232EF10223200105232211052324210526
:10097C002326310523284105232A5105232C610503
:10098C00232E710523208107232291072324A107FD
:10099C002326B1072328C107232AD107232CE107DB
:1009AC00232EF107EFF05FAC832041008321C100BF
:1009BC000322010183224101032381018323C1010D
:1009CC000324010283244102032581028325C102F1
:1009DC000326010383264103032781038327C103D5
:1009EC000328010483284104032981048329C104B9
:1009FC00032A0105832A4105032B8105832BC1059D
:100A0C00032C0106832C4106032D8106832DC10680
:100A1C00032E0107832E4107032F8107832FC10764
:100A2C007311013473002030130101FFB7170080DC
:100A3C0023248100371400801387C7AD1304C4AD81
:100A4C003304E440232291002320210123261100AA
:100A5C0013542440930400001389C7AD639284049B
:100A6C00EFF0CFE0B7170080371400801387C7ADC5
:100A7C001304C4AD3304E440135424409304000025
:100A8C001389C7AD639A84028320C10003248100BB
:100A9C008324410003290100130101016780000038
:100AAC0093972400B307F90083A7070093841400DD
:100ABC00E78007006FF09FFA93972400B307F900C3
:100ACC0083A7070093841400E78007006FF09FFB57
:100ADC002A2A2A2056657852697363762042494F38
:100AEC0053202A2A2A0A00002A2A2A2053757065C4
:100AFC00727669736F72202A2A2A0A00556E6B6E01
:100B0C006F776E20534142490A000000556E6B6EA0
:100B1C006F776E20657863657074696F6E20000066
:100B2C000A6D616368696E654D6F64655362692017
:0C0B3C00657863657074696F6E0A0000D4
:040000058000000077
:00000001FF
